{"abi":[{"type":"function","name":"getProof","inputs":[{"name":"data","type":"bytes32[]","internalType":"bytes32[]"},{"name":"node","type":"uint256","internalType":"uint256"}],"outputs":[{"name":"","type":"bytes32[]","internalType":"bytes32[]"}],"stateMutability":"pure"},{"type":"function","name":"getRoot","inputs":[{"name":"data","type":"bytes32[]","internalType":"bytes32[]"}],"outputs":[{"name":"","type":"bytes32","internalType":"bytes32"}],"stateMutability":"pure"},{"type":"function","name":"hashLeafPairs","inputs":[{"name":"left","type":"bytes32","internalType":"bytes32"},{"name":"right","type":"bytes32","internalType":"bytes32"}],"outputs":[{"name":"_hash","type":"bytes32","internalType":"bytes32"}],"stateMutability":"pure"},{"type":"function","name":"log2ceil","inputs":[{"name":"x","type":"uint256","internalType":"uint256"}],"outputs":[{"name":"","type":"uint256","internalType":"uint256"}],"stateMutability":"pure"},{"type":"function","name":"log2ceilBitMagic","inputs":[{"name":"x","type":"uint256","internalType":"uint256"}],"outputs":[{"name":"","type":"uint256","internalType":"uint256"}],"stateMutability":"pure"},{"type":"function","name":"verifyProof","inputs":[{"name":"root","type":"bytes32","internalType":"bytes32"},{"name":"proof","type":"bytes32[]","internalType":"bytes32[]"},{"name":"valueToProve","type":"bytes32","internalType":"bytes32"}],"outputs":[{"name":"","type":"bool","internalType":"bool"}],"stateMutability":"pure"}],"bytecode":{"object":"0x608060405234801561000f575f80fd5b50610e288061001d5f395ff3fe608060405234801561000f575f80fd5b5060043610610060575f3560e01c80632e08d6021461006457806358161a4214610094578063b8616195146100c4578063cf06c7b7146100f4578063dd1d259914610124578063e27d515314610154575b5f80fd5b61007e60048036038101906100799190610909565b610184565b60405161008b919061095f565b60405180910390f35b6100ae60048036038101906100a99190610978565b610206565b6040516100bb91906109fe565b60405180910390f35b6100de60048036038101906100d99190610a4a565b61025a565b6040516100eb9190610b5b565b60405180910390f35b61010e60048036038101906101099190610b7b565b6103f3565b60405161011b9190610bb5565b60405180910390f35b61013e60048036038101906101399190610bce565b610562565b60405161014b919061095f565b60405180910390f35b61016e60048036038101906101699190610b7b565b61058e565b60405161017b9190610bb5565b60405180910390f35b5f60018251116101c9576040517f08c379a00000000000000000000000000000000000000000000000000000000081526004016101c090610c8c565b60405180910390fd5b5b6001825111156101e4576101dd826105cb565b91506101ca565b815f815181106101f7576101f6610caa565b5b60200260200101519050919050565b5f808290505f845190505f5b8181101561024b5761023e8387838151811061023157610230610caa565b5b6020026020010151610562565b9250806001019050610212565b50818614925050509392505050565b606060018351116102a0576040517f08c379a000000000000000000000000000000000000000000000000000000000815260040161029790610d47565b60405180910390fd5b5f6102ab84516103f3565b67ffffffffffffffff8111156102c4576102c361079a565b5b6040519080825280602002602001820160405280156102f25781602001602082028036833780820191505090505b5090505f5b6001855111156103e85760018085160361034d5784600185038151811061032157610320610caa565b5b602002602001015182828151811061033c5761033b610caa565b5b6020026020010181815250506103be565b8451600185010361037f575f801b82828151811061036e5761036d610caa565b5b6020026020010181815250506103bd565b84600185018151811061039557610394610caa565b5b60200260200101518282815181106103b0576103af610caa565b5b6020026020010181815250505b5b806001019050600284816103d5576103d4610d65565b5b0493506103e1856105cb565b94506102f7565b819250505092915050565b5f60018211610404575f905061055d565b5f80839050700100000000000000000000000000000000841061043857608084901c93506080826104359190610dbf565b91505b68010000000000000000841061045f57604084901c935060408261045c9190610dbf565b91505b640100000000841061048257602084901c935060208261047f9190610dbf565b91505b6201000084106104a357601084901c93506010826104a09190610dbf565b91505b61010084106104c357600884901c93506008826104c09190610dbf565b91505b601084106104e257600484901c93506004826104df9190610dbf565b91505b6004841061050157600284901c93506002826104fe9190610dbf565b91505b60028410610519576001826105169190610dbf565b91505b5f81600183196105299190610dbf565b169050818114801561053a57505f83115b1561054a5782935050505061055d565b6001836105579190610dbf565b93505050505b919050565b5f8183105f811461057957835f5282602052610581565b825f52836020525b5060405f20905092915050565b5f805f90505f83846001861901161490505b5f8411156105bc57600184901c935081806001019250506105a0565b80820391508192505050919050565b6060805f8351905060018082160361068d576001600282816105f0576105ef610d65565b5b040167ffffffffffffffff81111561060b5761060a61079a565b5b6040519080825280602002602001820160405280156106395781602001602082028036833780820191505090505b50915061066584600183038151811061065557610654610caa565b5b60200260200101515f801b610562565b8260018451038151811061067c5761067b610caa565b5b6020026020010181815250506106ea565b6002818161069e5761069d610d65565b5b0467ffffffffffffffff8111156106b8576106b761079a565b5b6040519080825280602002602001820160405280156106e65781602001602082028036833780820191505090505b5091505b5f805b600183038110156107695761073986828151811061070e5761070d610caa565b5b602002602001015187600184018151811061072c5761072b610caa565b5b6020026020010151610562565b84838151811061074c5761074b610caa565b5b6020026020010181815250508160010191506002810190506106ed565b50505080915050919050565b5f604051905090565b5f80fd5b5f80fd5b5f80fd5b5f601f19601f8301169050919050565b7f4e487b71000000000000000000000000000000000000000000000000000000005f52604160045260245ffd5b6107d08261078a565b810181811067ffffffffffffffff821117156107ef576107ee61079a565b5b80604052505050565b5f610801610775565b905061080d82826107c7565b919050565b5f67ffffffffffffffff82111561082c5761082b61079a565b5b602082029050602081019050919050565b5f80fd5b5f819050919050565b61085381610841565b811461085d575f80fd5b50565b5f8135905061086e8161084a565b92915050565b5f61088661088184610812565b6107f8565b905080838252602082019050602084028301858111156108a9576108a861083d565b5b835b818110156108d257806108be8882610860565b8452602084019350506020810190506108ab565b5050509392505050565b5f82601f8301126108f0576108ef610786565b5b8135610900848260208601610874565b91505092915050565b5f6020828403121561091e5761091d61077e565b5b5f82013567ffffffffffffffff81111561093b5761093a610782565b5b610947848285016108dc565b91505092915050565b61095981610841565b82525050565b5f6020820190506109725f830184610950565b92915050565b5f805f6060848603121561098f5761098e61077e565b5b5f61099c86828701610860565b935050602084013567ffffffffffffffff8111156109bd576109bc610782565b5b6109c9868287016108dc565b92505060406109da86828701610860565b9150509250925092565b5f8115159050919050565b6109f8816109e4565b82525050565b5f602082019050610a115f8301846109ef565b92915050565b5f819050919050565b610a2981610a17565b8114610a33575f80fd5b50565b5f81359050610a4481610a20565b92915050565b5f8060408385031215610a6057610a5f61077e565b5b5f83013567ffffffffffffffff811115610a7d57610a7c610782565b5b610a89858286016108dc565b9250506020610a9a85828601610a36565b9150509250929050565b5f81519050919050565b5f82825260208201905092915050565b5f819050602082019050919050565b610ad681610841565b82525050565b5f610ae78383610acd565b60208301905092915050565b5f602082019050919050565b5f610b0982610aa4565b610b138185610aae565b9350610b1e83610abe565b805f5b83811015610b4e578151610b358882610adc565b9750610b4083610af3565b925050600181019050610b21565b5085935050505092915050565b5f6020820190508181035f830152610b738184610aff565b905092915050565b5f60208284031215610b9057610b8f61077e565b5b5f610b9d84828501610a36565b91505092915050565b610baf81610a17565b82525050565b5f602082019050610bc85f830184610ba6565b92915050565b5f8060408385031215610be457610be361077e565b5b5f610bf185828601610860565b9250506020610c0285828601610860565b9150509250929050565b5f82825260208201905092915050565b7f776f6e27742067656e657261746520726f6f7420666f722073696e676c65206c5f8201527f6561660000000000000000000000000000000000000000000000000000000000602082015250565b5f610c76602383610c0c565b9150610c8182610c1c565b604082019050919050565b5f6020820190508181035f830152610ca381610c6a565b9050919050565b7f4e487b71000000000000000000000000000000000000000000000000000000005f52603260045260245ffd5b7f776f6e27742067656e65726174652070726f6f6620666f722073696e676c65205f8201527f6c65616600000000000000000000000000000000000000000000000000000000602082015250565b5f610d31602483610c0c565b9150610d3c82610cd7565b604082019050919050565b5f6020820190508181035f830152610d5e81610d25565b9050919050565b7f4e487b71000000000000000000000000000000000000000000000000000000005f52601260045260245ffd5b7f4e487b71000000000000000000000000000000000000000000000000000000005f52601160045260245ffd5b5f610dc982610a17565b9150610dd483610a17565b9250828201905080821115610dec57610deb610d92565b5b9291505056fea26469706673582212204203c54074b70595b6fe4bd4964bbdaa6279b718dd3cc52b4f697b8b2175011164736f6c63430008180033","linkReferences":{}},"methodIdentifiers":{"getProof(bytes32[],uint256)":"b8616195","getRoot(bytes32[])":"2e08d602","hashLeafPairs(bytes32,bytes32)":"dd1d2599","log2ceil(uint256)":"e27d5153","log2ceilBitMagic(uint256)":"cf06c7b7","verifyProof(bytes32,bytes32[],bytes32)":"58161a42"},"id":16}