{"abi":[{"type":"constructor","inputs":[{"name":"merkleRoot","type":"bytes32","internalType":"bytes32"},{"name":"airdropToken","type":"address","internalType":"contract IERC20"}],"stateMutability":"nonpayable"},{"type":"function","name":"claim","inputs":[{"name":"account","type":"address","internalType":"address"},{"name":"amount","type":"uint256","internalType":"uint256"},{"name":"merkleProof","type":"bytes32[]","internalType":"bytes32[]"},{"name":"v","type":"uint8","internalType":"uint8"},{"name":"r","type":"bytes32","internalType":"bytes32"},{"name":"s","type":"bytes32","internalType":"bytes32"}],"outputs":[],"stateMutability":"nonpayable"},{"type":"function","name":"eip712Domain","inputs":[],"outputs":[{"name":"fields","type":"bytes1","internalType":"bytes1"},{"name":"name","type":"string","internalType":"string"},{"name":"version","type":"string","internalType":"string"},{"name":"chainId","type":"uint256","internalType":"uint256"},{"name":"verifyingContract","type":"address","internalType":"address"},{"name":"salt","type":"bytes32","internalType":"bytes32"},{"name":"extensions","type":"uint256[]","internalType":"uint256[]"}],"stateMutability":"view"},{"type":"function","name":"getAirdropToken","inputs":[],"outputs":[{"name":"","type":"address","internalType":"contract IERC20"}],"stateMutability":"view"},{"type":"function","name":"getMerkleRoot","inputs":[],"outputs":[{"name":"","type":"bytes32","internalType":"bytes32"}],"stateMutability":"view"},{"type":"function","name":"getMessageHash","inputs":[{"name":"account","type":"address","internalType":"address"},{"name":"amount","type":"uint256","internalType":"uint256"}],"outputs":[{"name":"","type":"bytes32","internalType":"bytes32"}],"stateMutability":"view"},{"type":"event","name":"Claimed","inputs":[{"name":"account","type":"address","indexed":false,"internalType":"address"},{"name":"amount","type":"uint256","indexed":false,"internalType":"uint256"}],"anonymous":false},{"type":"event","name":"EIP712DomainChanged","inputs":[],"anonymous":false},{"type":"event","name":"MerkleRootUpdated","inputs":[{"name":"newMerkleRoot","type":"bytes32","indexed":false,"internalType":"bytes32"}],"anonymous":false},{"type":"error","name":"InvalidShortString","inputs":[]},{"type":"error","name":"MerkleAirdrop__AlreadyClaimed","inputs":[]},{"type":"error","name":"MerkleAirdrop__InvalidProof","inputs":[]},{"type":"error","name":"MerkleAirdrop__InvalidSignature","inputs":[]},{"type":"error","name":"SafeERC20FailedOperation","inputs":[{"name":"token","type":"address","internalType":"address"}]},{"type":"error","name":"StringTooLong","inputs":[{"name":"str","type":"string","internalType":"string"}]}],"bytecode":{"object":"0x6101a060405234801562000011575f80fd5b5060405162001c4538038062001c4583398181016040528101906200003791906200036c565b6040518060400160405280600e81526020017f4d65726b6c652041697264726f700000000000000000000000000000000000008152506040518060400160405280600581526020017f312e302e30000000000000000000000000000000000000000000000000000000815250620000b85f836200019860201b90919060201c565b6101208181525050620000d66001826200019860201b90919060201c565b6101408181525050818051906020012060e08181525050808051906020012061010081815250504660a0818152505062000115620001ed60201b60201c565b608081815250503073ffffffffffffffffffffffffffffffffffffffff1660c08173ffffffffffffffffffffffffffffffffffffffff168152505050508161018081815250508073ffffffffffffffffffffffffffffffffffffffff166101608173ffffffffffffffffffffffffffffffffffffffff16815250505050620008d1565b5f602083511015620001bd57620001b5836200024960201b60201c565b9050620001e7565b82620001cf83620002b360201b60201c565b5f019081620001df919062000615565b5060ff5f1b90505b92915050565b5f7f8b73c3c69bb8fe3d512ecc4cf759cc79239f7b179b0ffacaa9a75d522b39400f60e0516101005146306040516020016200022e9594939291906200072c565b60405160208183030381529060405280519060200120905090565b5f80829050601f815111156200029857826040517f305a27a90000000000000000000000000000000000000000000000000000000081526004016200028f919062000811565b60405180910390fd5b805181620002a69062000862565b5f1c175f1b915050919050565b5f819050919050565b5f80fd5b5f819050919050565b620002d481620002c0565b8114620002df575f80fd5b50565b5f81519050620002f281620002c9565b92915050565b5f73ffffffffffffffffffffffffffffffffffffffff82169050919050565b5f6200032382620002f8565b9050919050565b5f620003368262000317565b9050919050565b62000348816200032a565b811462000353575f80fd5b50565b5f8151905062000366816200033d565b92915050565b5f8060408385031215620003855762000384620002bc565b5b5f6200039485828601620002e2565b9250506020620003a78582860162000356565b9150509250929050565b5f81519050919050565b7f4e487b71000000000000000000000000000000000000000000000000000000005f52604160045260245ffd5b7f4e487b71000000000000000000000000000000000000000000000000000000005f52602260045260245ffd5b5f60028204905060018216806200042d57607f821691505b602082108103620004435762000442620003e8565b5b50919050565b5f819050815f5260205f209050919050565b5f6020601f8301049050919050565b5f82821b905092915050565b5f60088302620004a77fffffffffffffffffffffffffffffffffffffffffffffffffffffffffffffffff826200046a565b620004b386836200046a565b95508019841693508086168417925050509392505050565b5f819050919050565b5f819050919050565b5f620004fd620004f7620004f184620004cb565b620004d4565b620004cb565b9050919050565b5f819050919050565b6200051883620004dd565b62000530620005278262000504565b84845462000476565b825550505050565b5f90565b6200054662000538565b620005538184846200050d565b505050565b5b818110156200057a576200056e5f826200053c565b60018101905062000559565b5050565b601f821115620005c957620005938162000449565b6200059e846200045b565b81016020851015620005ae578190505b620005c6620005bd856200045b565b83018262000558565b50505b505050565b5f82821c905092915050565b5f620005eb5f1984600802620005ce565b1980831691505092915050565b5f620006058383620005da565b9150826002028217905092915050565b6200062082620003b1565b67ffffffffffffffff8111156200063c576200063b620003bb565b5b62000648825462000415565b620006558282856200057e565b5f60209050601f8311600181146200068b575f841562000676578287015190505b620006828582620005f8565b865550620006f1565b601f1984166200069b8662000449565b5f5b82811015620006c4578489015182556001820191506020850194506020810190506200069d565b86831015620006e45784890151620006e0601f891682620005da565b8355505b6001600288020188555050505b505050505050565b6200070481620002c0565b82525050565b6200071581620004cb565b82525050565b620007268162000317565b82525050565b5f60a082019050620007415f830188620006f9565b620007506020830187620006f9565b6200075f6040830186620006f9565b6200076e60608301856200070a565b6200077d60808301846200071b565b9695505050505050565b5f82825260208201905092915050565b5f5b83811015620007b657808201518184015260208101905062000799565b5f8484015250505050565b5f601f19601f8301169050919050565b5f620007dd82620003b1565b620007e9818562000787565b9350620007fb81856020860162000797565b6200080681620007c1565b840191505092915050565b5f6020820190508181035f8301526200082b8184620007d1565b905092915050565b5f81519050919050565b5f819050602082019050919050565b5f620008598251620002c0565b80915050919050565b5f6200086e8262000833565b826200087a846200083d565b905062000887816200084c565b92506020821015620008ca57620008c57fffffffffffffffffffffffffffffffffffffffffffffffffffffffffffffffff836020036008026200046a565b831692505b5050919050565b60805160a05160c05160e0516101005161012051610140516101605161018051611300620009455f395f818161026a01526103ab01525f818161035a015261045601525f61065d01525f61062201525f610a7101525f610a5001525f61086201525f6108b801525f6108e101526113005ff3fe608060405234801561000f575f80fd5b5060043610610055575f3560e01c80634497a169146100595780634959065714610075578063512c91df14610093578063548efba2146100c357806384b0196e146100e1575b5f80fd5b610073600480360381019061006e9190610cf4565b610105565b005b61007d6103a8565b60405161008a9190610dad565b60405180910390f35b6100ad60048036038101906100a89190610dc6565b6103cf565b6040516100ba9190610dad565b60405180910390f35b6100cb610453565b6040516100d89190610e5f565b60405180910390f35b6100e961047a565b6040516100fc9796959493929190611011565b60405180910390f35b60025f8873ffffffffffffffffffffffffffffffffffffffff1673ffffffffffffffffffffffffffffffffffffffff1681526020019081526020015f205f9054906101000a900460ff1615610186576040517f1ac2170b00000000000000000000000000000000000000000000000000000000815260040160405180910390fd5b61019c8761019489896103cf565b85858561051f565b6101d2576040517fab8b856500000000000000000000000000000000000000000000000000000000815260040160405180910390fd5b5f87876040516020016101e6929190611093565b6040516020818303038152906040528051906020012060405160200161020c91906110da565b60405160208183030381529060405280519060200120905061028f8686808060200260200160405190810160405280939291908181526020018383602002808284375f81840152601f19601f820116905080830192505050505050507f00000000000000000000000000000000000000000000000000000000000000008361056c565b6102c5576040517fc3c426dc00000000000000000000000000000000000000000000000000000000815260040160405180910390fd5b600160025f8a73ffffffffffffffffffffffffffffffffffffffff1673ffffffffffffffffffffffffffffffffffffffff1681526020019081526020015f205f6101000a81548160ff0219169083151502179055507fd8138f8a3f377c5259ca548e70e4c2de94f129f5a11036a15b69513cba2b426a888860405161034b929190611093565b60405180910390a161039e88887f000000000000000000000000000000000000000000000000000000000000000073ffffffffffffffffffffffffffffffffffffffff166105829092919063ffffffff16565b5050505050505050565b5f7f0000000000000000000000000000000000000000000000000000000000000000905090565b5f61044b7faa726e564e52b64144617a6a46c42e8b763d4d224ca1a3e13c1491f8a4763a2360405180604001604052808673ffffffffffffffffffffffffffffffffffffffff16815260200185815250604051602001610430929190611130565b60405160208183030381529060405280519060200120610601565b905092915050565b5f7f0000000000000000000000000000000000000000000000000000000000000000905090565b5f6060805f805f606061048b61061a565b610493610654565b46305f801b5f67ffffffffffffffff8111156104b2576104b1611157565b5b6040519080825280602002602001820160405280156104e05781602001602082028036833780820191505090505b507f0f00000000000000000000000000000000000000000000000000000000000000959493929190965096509650965096509650965090919293949596565b5f8061052d8686868661068f565b505090508673ffffffffffffffffffffffffffffffffffffffff168173ffffffffffffffffffffffffffffffffffffffff161491505095945050505050565b5f826105788584610776565b1490509392505050565b6105fc838473ffffffffffffffffffffffffffffffffffffffff1663a9059cbb85856040516024016105b5929190611093565b604051602081830303815290604052915060e01b6020820180517bffffffffffffffffffffffffffffffffffffffffffffffffffffffff83818316178352505050506107c4565b505050565b5f61061361060d61085f565b83610915565b9050919050565b606061064f5f7f000000000000000000000000000000000000000000000000000000000000000061095590919063ffffffff16565b905090565b606061068a60017f000000000000000000000000000000000000000000000000000000000000000061095590919063ffffffff16565b905090565b5f805f7f7fffffffffffffffffffffffffffffff5d576e7357a4501ddfe92f46681b20a0845f1c11156106cb575f60038592509250925061076c565b5f6001888888886040515f81526020016040526040516106ee9493929190611193565b6020604051602081039080840390855afa15801561070e573d5f803e3d5ffd5b5050506020604051035190505f73ffffffffffffffffffffffffffffffffffffffff168173ffffffffffffffffffffffffffffffffffffffff160361075f575f60015f801b9350935093505061076c565b805f805f1b935093509350505b9450945094915050565b5f808290505f5b84518110156107b9576107aa8286838151811061079d5761079c6111d6565b5b6020026020010151610a02565b9150808060010191505061077d565b508091505092915050565b5f8060205f8451602086015f885af1806107e3576040513d5f823e3d81fd5b3d92505f519150505f82146107fc576001811415610817565b5f8473ffffffffffffffffffffffffffffffffffffffff163b145b1561085957836040517f5274afe70000000000000000000000000000000000000000000000000000000081526004016108509190611203565b60405180910390fd5b50505050565b5f7f000000000000000000000000000000000000000000000000000000000000000073ffffffffffffffffffffffffffffffffffffffff163073ffffffffffffffffffffffffffffffffffffffff161480156108da57507f000000000000000000000000000000000000000000000000000000000000000046145b15610907577f00000000000000000000000000000000000000000000000000000000000000009050610912565b61090f610a2c565b90505b90565b5f6040517f190100000000000000000000000000000000000000000000000000000000000081528360028201528260228201526042812091505092915050565b606060ff5f1b83146109715761096a83610ac1565b90506109fc565b81805461097d90611249565b80601f01602080910402602001604051908101604052809291908181526020018280546109a990611249565b80156109f45780601f106109cb576101008083540402835291602001916109f4565b820191905f5260205f20905b8154815290600101906020018083116109d757829003601f168201915b505050505090505b92915050565b5f818310610a1957610a148284610b33565b610a24565b610a238383610b33565b5b905092915050565b5f7f8b73c3c69bb8fe3d512ecc4cf759cc79239f7b179b0ffacaa9a75d522b39400f7f00000000000000000000000000000000000000000000000000000000000000007f00000000000000000000000000000000000000000000000000000000000000004630604051602001610aa6959493929190611279565b60405160208183030381529060405280519060200120905090565b60605f610acd83610b47565b90505f602067ffffffffffffffff811115610aeb57610aea611157565b5b6040519080825280601f01601f191660200182016040528015610b1d5781602001600182028036833780820191505090505b5090508181528360208201528092505050919050565b5f825f528160205260405f20905092915050565b5f8060ff835f1c169050601f811115610b8c576040517fb3512b0c00000000000000000000000000000000000000000000000000000000815260040160405180910390fd5b80915050919050565b5f80fd5b5f80fd5b5f73ffffffffffffffffffffffffffffffffffffffff82169050919050565b5f610bc682610b9d565b9050919050565b610bd681610bbc565b8114610be0575f80fd5b50565b5f81359050610bf181610bcd565b92915050565b5f819050919050565b610c0981610bf7565b8114610c13575f80fd5b50565b5f81359050610c2481610c00565b92915050565b5f80fd5b5f80fd5b5f80fd5b5f8083601f840112610c4b57610c4a610c2a565b5b8235905067ffffffffffffffff811115610c6857610c67610c2e565b5b602083019150836020820283011115610c8457610c83610c32565b5b9250929050565b5f60ff82169050919050565b610ca081610c8b565b8114610caa575f80fd5b50565b5f81359050610cbb81610c97565b92915050565b5f819050919050565b610cd381610cc1565b8114610cdd575f80fd5b50565b5f81359050610cee81610cca565b92915050565b5f805f805f805f60c0888a031215610d0f57610d0e610b95565b5b5f610d1c8a828b01610be3565b9750506020610d2d8a828b01610c16565b965050604088013567ffffffffffffffff811115610d4e57610d4d610b99565b5b610d5a8a828b01610c36565b95509550506060610d6d8a828b01610cad565b9350506080610d7e8a828b01610ce0565b92505060a0610d8f8a828b01610ce0565b91505092959891949750929550565b610da781610cc1565b82525050565b5f602082019050610dc05f830184610d9e565b92915050565b5f8060408385031215610ddc57610ddb610b95565b5b5f610de985828601610be3565b9250506020610dfa85828601610c16565b9150509250929050565b5f819050919050565b5f610e27610e22610e1d84610b9d565b610e04565b610b9d565b9050919050565b5f610e3882610e0d565b9050919050565b5f610e4982610e2e565b9050919050565b610e5981610e3f565b82525050565b5f602082019050610e725f830184610e50565b92915050565b5f7fff0000000000000000000000000000000000000000000000000000000000000082169050919050565b610eac81610e78565b82525050565b5f81519050919050565b5f82825260208201905092915050565b5f5b83811015610ee9578082015181840152602081019050610ece565b5f8484015250505050565b5f601f19601f8301169050919050565b5f610f0e82610eb2565b610f188185610ebc565b9350610f28818560208601610ecc565b610f3181610ef4565b840191505092915050565b610f4581610bf7565b82525050565b610f5481610bbc565b82525050565b5f81519050919050565b5f82825260208201905092915050565b5f819050602082019050919050565b610f8c81610bf7565b82525050565b5f610f9d8383610f83565b60208301905092915050565b5f602082019050919050565b5f610fbf82610f5a565b610fc98185610f64565b9350610fd483610f74565b805f5b83811015611004578151610feb8882610f92565b9750610ff683610fa9565b925050600181019050610fd7565b5085935050505092915050565b5f60e0820190506110245f83018a610ea3565b81810360208301526110368189610f04565b9050818103604083015261104a8188610f04565b90506110596060830187610f3c565b6110666080830186610f4b565b61107360a0830185610d9e565b81810360c08301526110858184610fb5565b905098975050505050505050565b5f6040820190506110a65f830185610f4b565b6110b36020830184610f3c565b9392505050565b5f819050919050565b6110d46110cf82610cc1565b6110ba565b82525050565b5f6110e582846110c3565b60208201915081905092915050565b6110fd81610bbc565b82525050565b604082015f8201516111175f8501826110f4565b50602082015161112a6020850182610f83565b50505050565b5f6060820190506111435f830185610d9e565b6111506020830184611103565b9392505050565b7f4e487b71000000000000000000000000000000000000000000000000000000005f52604160045260245ffd5b61118d81610c8b565b82525050565b5f6080820190506111a65f830187610d9e565b6111b36020830186611184565b6111c06040830185610d9e565b6111cd6060830184610d9e565b95945050505050565b7f4e487b71000000000000000000000000000000000000000000000000000000005f52603260045260245ffd5b5f6020820190506112165f830184610f4b565b92915050565b7f4e487b71000000000000000000000000000000000000000000000000000000005f52602260045260245ffd5b5f600282049050600182168061126057607f821691505b6020821081036112735761127261121c565b5b50919050565b5f60a08201905061128c5f830188610d9e565b6112996020830187610d9e565b6112a66040830186610d9e565b6112b36060830185610f3c565b6112c06080830184610f4b565b969550505050505056fea26469706673582212205631b2b2562ccd2e7c65db628e9fd4d0eab7808b278f1b30b909b1cdb7eb5ad264736f6c63430008180033","linkReferences":{}},"methodIdentifiers":{"claim(address,uint256,bytes32[],uint8,bytes32,bytes32)":"4497a169","eip712Domain()":"84b0196e","getAirdropToken()":"548efba2","getMerkleRoot()":"49590657","getMessageHash(address,uint256)":"512c91df"},"id":51}